{
  "contractName": "destExchange",
  "abi": [
    {
      "inputs": [],
      "stateMutability": "nonpayable",
      "type": "constructor"
    },
    {
      "anonymous": false,
      "inputs": [
        {
          "indexed": false,
          "internalType": "address",
          "name": "from",
          "type": "address"
        },
        {
          "indexed": false,
          "internalType": "address",
          "name": "to",
          "type": "address"
        },
        {
          "indexed": false,
          "internalType": "uint256",
          "name": "amount",
          "type": "uint256"
        }
      ],
      "name": "DESTTransfer",
      "type": "event"
    },
    {
      "anonymous": false,
      "inputs": [
        {
          "indexed": false,
          "internalType": "address",
          "name": "from",
          "type": "address"
        },
        {
          "indexed": false,
          "internalType": "uint256",
          "name": "IDSAmount",
          "type": "uint256"
        },
        {
          "indexed": false,
          "internalType": "uint256",
          "name": "DESTAmount",
          "type": "uint256"
        }
      ],
      "name": "Exchange",
      "type": "event"
    },
    {
      "anonymous": false,
      "inputs": [
        {
          "indexed": false,
          "internalType": "address",
          "name": "from",
          "type": "address"
        },
        {
          "indexed": false,
          "internalType": "address",
          "name": "to",
          "type": "address"
        },
        {
          "indexed": false,
          "internalType": "uint256",
          "name": "amount",
          "type": "uint256"
        }
      ],
      "name": "IDSTransfer",
      "type": "event"
    },
    {
      "anonymous": false,
      "inputs": [
        {
          "indexed": true,
          "internalType": "address",
          "name": "previousOwner",
          "type": "address"
        },
        {
          "indexed": true,
          "internalType": "address",
          "name": "newOwner",
          "type": "address"
        }
      ],
      "name": "OwnershipTransferred",
      "type": "event"
    },
    {
      "anonymous": false,
      "inputs": [
        {
          "indexed": false,
          "internalType": "address",
          "name": "account",
          "type": "address"
        }
      ],
      "name": "Paused",
      "type": "event"
    },
    {
      "anonymous": false,
      "inputs": [
        {
          "indexed": false,
          "internalType": "address",
          "name": "account",
          "type": "address"
        }
      ],
      "name": "Unpaused",
      "type": "event"
    },
    {
      "inputs": [],
      "name": "owner",
      "outputs": [
        {
          "internalType": "address",
          "name": "",
          "type": "address"
        }
      ],
      "stateMutability": "view",
      "type": "function"
    },
    {
      "inputs": [],
      "name": "paused",
      "outputs": [
        {
          "internalType": "bool",
          "name": "",
          "type": "bool"
        }
      ],
      "stateMutability": "view",
      "type": "function"
    },
    {
      "inputs": [],
      "name": "renounceOwnership",
      "outputs": [],
      "stateMutability": "nonpayable",
      "type": "function"
    },
    {
      "inputs": [
        {
          "internalType": "address",
          "name": "newOwner",
          "type": "address"
        }
      ],
      "name": "transferOwnership",
      "outputs": [],
      "stateMutability": "nonpayable",
      "type": "function"
    },
    {
      "inputs": [
        {
          "internalType": "address",
          "name": "wallet",
          "type": "address"
        }
      ],
      "name": "setLPAddress",
      "outputs": [],
      "stateMutability": "nonpayable",
      "type": "function"
    },
    {
      "inputs": [
        {
          "internalType": "address",
          "name": "wallet",
          "type": "address"
        }
      ],
      "name": "setIDSAddress",
      "outputs": [],
      "stateMutability": "nonpayable",
      "type": "function"
    },
    {
      "inputs": [
        {
          "internalType": "address",
          "name": "wallet",
          "type": "address"
        }
      ],
      "name": "setDESTAddress",
      "outputs": [],
      "stateMutability": "nonpayable",
      "type": "function"
    },
    {
      "inputs": [
        {
          "internalType": "address",
          "name": "wallet",
          "type": "address"
        }
      ],
      "name": "setFeesAddress",
      "outputs": [],
      "stateMutability": "nonpayable",
      "type": "function"
    },
    {
      "inputs": [],
      "name": "idsPrice",
      "outputs": [
        {
          "internalType": "uint256",
          "name": "",
          "type": "uint256"
        }
      ],
      "stateMutability": "view",
      "type": "function"
    },
    {
      "inputs": [],
      "name": "destPrice",
      "outputs": [
        {
          "internalType": "uint256",
          "name": "",
          "type": "uint256"
        }
      ],
      "stateMutability": "view",
      "type": "function"
    },
    {
      "inputs": [],
      "name": "exchangeRate",
      "outputs": [
        {
          "internalType": "uint256",
          "name": "",
          "type": "uint256"
        }
      ],
      "stateMutability": "view",
      "type": "function"
    },
    {
      "inputs": [
        {
          "internalType": "uint256",
          "name": "amount",
          "type": "uint256"
        }
      ],
      "name": "exchange",
      "outputs": [],
      "stateMutability": "nonpayable",
      "type": "function"
    },
    {
      "inputs": [
        {
          "internalType": "address",
          "name": "recipient",
          "type": "address"
        },
        {
          "internalType": "uint256",
          "name": "amount",
          "type": "uint256"
        }
      ],
      "name": "releaseDEST",
      "outputs": [],
      "stateMutability": "nonpayable",
      "type": "function"
    },
    {
      "inputs": [
        {
          "internalType": "address",
          "name": "recipient",
          "type": "address"
        },
        {
          "internalType": "uint256",
          "name": "amount",
          "type": "uint256"
        }
      ],
      "name": "releaseIDS",
      "outputs": [],
      "stateMutability": "nonpayable",
      "type": "function"
    },
    {
      "inputs": [],
      "name": "pause",
      "outputs": [],
      "stateMutability": "nonpayable",
      "type": "function"
    },
    {
      "inputs": [],
      "name": "unpause",
      "outputs": [],
      "stateMutability": "nonpayable",
      "type": "function"
    }
  ],
  "bytecode": "0x608060405234801561001057600080fd5b5061002d61002261007560201b60201c565b61007d60201b60201c565b60008060146101000a81548160ff0219169083151502179055506001808190555042600381905550601e6004819055506112df600581905550620f4240600281905550610141565b600033905090565b60008060009054906101000a900473ffffffffffffffffffffffffffffffffffffffff169050816000806101000a81548173ffffffffffffffffffffffffffffffffffffffff021916908373ffffffffffffffffffffffffffffffffffffffff1602179055508173ffffffffffffffffffffffffffffffffffffffff168173ffffffffffffffffffffffffffffffffffffffff167f8be0079c531659141344cd1fd0a4f28419497f9722a3daafe3b4186f6b6457e060405160405180910390a35050565b6121bf80620001516000396000f3fe608060405234801561001057600080fd5b50600436106101005760003560e01c806370c4e554116100975780638456cb59116100665780638456cb59146102395780638da5cb5b146102435780639679f85f14610261578063f2fde38b1461027d57610100565b806370c4e554146101db578063715018a6146101f7578063736e4f57146102015780637a351a1d1461021d57610100565b806353556559116100d357806353556559146101675780635aa51d8c146101835780635c975abb146101a15780636f31a047146101bf57610100565b80630abea9af1461010557806337ef57c3146101215780633ba0b9a91461013f5780633f4ba83a1461015d575b600080fd5b61011f600480360381019061011a9190611678565b610299565b005b610129610409565b60405161013691906116c7565b60405180910390f35b61014761045e565b60405161015491906116c7565b60405180910390f35b61016561048c565b005b610181600480360381019061017c91906116e2565b610512565b005b61018b6108e2565b60405161019891906116c7565b60405180910390f35b6101a96109c9565b6040516101b6919061172a565b60405180910390f35b6101d960048036038101906101d49190611678565b6109df565b005b6101f560048036038101906101f09190611745565b610a6a565b005b6101ff610b2a565b005b61021b60048036038101906102169190611745565b610bb2565b005b61023760048036038101906102329190611745565b610c72565b005b610241610d32565b005b61024b610db8565b6040516102589190611781565b60405180910390f35b61027b60048036038101906102769190611745565b610de1565b005b61029760048036038101906102929190611745565b610ea1565b005b6102a1610f98565b73ffffffffffffffffffffffffffffffffffffffff166102bf610db8565b73ffffffffffffffffffffffffffffffffffffffff1614610315576040517f08c379a000000000000000000000000000000000000000000000000000000000815260040161030c906117f9565b60405180910390fd5b6000600760009054906101000a900473ffffffffffffffffffffffffffffffffffffffff1673ffffffffffffffffffffffffffffffffffffffff16633950935130846040518363ffffffff1660e01b8152600401610374929190611819565b6020604051808303816000875af1158015610393573d6000803e3d6000fd5b505050506040513d601f19601f820116820180604052508101906103b7919061186e565b9050806103f9576040517f08c379a00000000000000000000000000000000000000000000000000000000081526004016103f09061190d565b60405180910390fd5b610404308484610fa0565b505050565b6000806018603c806003544261041f919061195c565b61042991906119bf565b61043391906119f0565b61043d91906119f0565b905061044b6005548261111b565b60045461045891906119f0565b91505090565b60006104686108e2565b6103e8610473610409565b61047d91906119f0565b61048791906119bf565b905090565b610494610f98565b73ffffffffffffffffffffffffffffffffffffffff166104b2610db8565b73ffffffffffffffffffffffffffffffffffffffff1614610508576040517f08c379a00000000000000000000000000000000000000000000000000000000081526004016104ff906117f9565b60405180910390fd5b610510611177565b565b600260015403610557576040517f08c379a000000000000000000000000000000000000000000000000000000000815260040161054e90611a96565b60405180910390fd5b60026001819055506105676109c9565b156105a7576040517f08c379a000000000000000000000000000000000000000000000000000000000815260040161059e90611b02565b60405180910390fd5b60006105b161045e565b9050600060616064846105c491906119bf565b6105ce91906119f0565b905060008111610613576040517f08c379a000000000000000000000000000000000000000000000000000000000815260040161060a90611b94565b60405180910390fd5b808361061f919061195c565b925060006103e8838561063291906119f0565b61063c91906119bf565b905060008111610681576040517f08c379a000000000000000000000000000000000000000000000000000000000815260040161067890611b94565b60405180910390fd5b818461068d9190611bb4565b600760009054906101000a900473ffffffffffffffffffffffffffffffffffffffff1673ffffffffffffffffffffffffffffffffffffffff166370a08231336040518263ffffffff1660e01b81526004016106e89190611781565b6020604051808303816000875af1158015610707573d6000803e3d6000fd5b505050506040513d601f19601f8201168201806040525081019061072b9190611c1f565b101561076c576040517f08c379a000000000000000000000000000000000000000000000000000000000815260040161076390611cbe565b60405180910390fd5b80600860009054906101000a900473ffffffffffffffffffffffffffffffffffffffff1673ffffffffffffffffffffffffffffffffffffffff166370a08231306040518263ffffffff1660e01b81526004016107c89190611781565b6020604051808303816000875af11580156107e7573d6000803e3d6000fd5b505050506040513d601f19601f8201168201806040525081019061080b9190611c1f565b101561084c576040517f08c379a000000000000000000000000000000000000000000000000000000000815260040161084390611d50565b60405180910390fd5b610857333086610fa0565b61088433600960009054906101000a900473ffffffffffffffffffffffffffffffffffffffff1684610fa0565b61088f303383611218565b7f26981b9aefbb0f732b0264bd34c255e831001eb50b06bc85b32cc39e143897213383866108bd9190611bb4565b836040516108cd93929190611d70565b60405180910390a15050506001808190555050565b6000806000600660009054906101000a900473ffffffffffffffffffffffffffffffffffffffff1673ffffffffffffffffffffffffffffffffffffffff16630902f1ac6040518163ffffffff1660e01b8152600401606060405180830381865afa158015610954573d6000803e3d6000fd5b505050506040513d601f19601f820116820180604052508101906109789190611e29565b506dffffffffffffffffffffffffffff1691506dffffffffffffffffffffffffffff169150606481600254846109ae91906119f0565b6109b891906119bf565b6109c291906119f0565b9250505090565b60008060149054906101000a900460ff16905090565b6109e7610f98565b73ffffffffffffffffffffffffffffffffffffffff16610a05610db8565b73ffffffffffffffffffffffffffffffffffffffff1614610a5b576040517f08c379a0000000000000000000000000000000000000000000000000000000008152600401610a52906117f9565b60405180910390fd5b610a66308383611218565b5050565b610a72610f98565b73ffffffffffffffffffffffffffffffffffffffff16610a90610db8565b73ffffffffffffffffffffffffffffffffffffffff1614610ae6576040517f08c379a0000000000000000000000000000000000000000000000000000000008152600401610add906117f9565b60405180910390fd5b80600760006101000a81548173ffffffffffffffffffffffffffffffffffffffff021916908373ffffffffffffffffffffffffffffffffffffffff16021790555050565b610b32610f98565b73ffffffffffffffffffffffffffffffffffffffff16610b50610db8565b73ffffffffffffffffffffffffffffffffffffffff1614610ba6576040517f08c379a0000000000000000000000000000000000000000000000000000000008152600401610b9d906117f9565b60405180910390fd5b610bb06000611478565b565b610bba610f98565b73ffffffffffffffffffffffffffffffffffffffff16610bd8610db8565b73ffffffffffffffffffffffffffffffffffffffff1614610c2e576040517f08c379a0000000000000000000000000000000000000000000000000000000008152600401610c25906117f9565b60405180910390fd5b80600960006101000a81548173ffffffffffffffffffffffffffffffffffffffff021916908373ffffffffffffffffffffffffffffffffffffffff16021790555050565b610c7a610f98565b73ffffffffffffffffffffffffffffffffffffffff16610c98610db8565b73ffffffffffffffffffffffffffffffffffffffff1614610cee576040517f08c379a0000000000000000000000000000000000000000000000000000000008152600401610ce5906117f9565b60405180910390fd5b80600660006101000a81548173ffffffffffffffffffffffffffffffffffffffff021916908373ffffffffffffffffffffffffffffffffffffffff16021790555050565b610d3a610f98565b73ffffffffffffffffffffffffffffffffffffffff16610d58610db8565b73ffffffffffffffffffffffffffffffffffffffff1614610dae576040517f08c379a0000000000000000000000000000000000000000000000000000000008152600401610da5906117f9565b60405180910390fd5b610db661153c565b565b60008060009054906101000a900473ffffffffffffffffffffffffffffffffffffffff16905090565b610de9610f98565b73ffffffffffffffffffffffffffffffffffffffff16610e07610db8565b73ffffffffffffffffffffffffffffffffffffffff1614610e5d576040517f08c379a0000000000000000000000000000000000000000000000000000000008152600401610e54906117f9565b60405180910390fd5b80600860006101000a81548173ffffffffffffffffffffffffffffffffffffffff021916908373ffffffffffffffffffffffffffffffffffffffff16021790555050565b610ea9610f98565b73ffffffffffffffffffffffffffffffffffffffff16610ec7610db8565b73ffffffffffffffffffffffffffffffffffffffff1614610f1d576040517f08c379a0000000000000000000000000000000000000000000000000000000008152600401610f14906117f9565b60405180910390fd5b600073ffffffffffffffffffffffffffffffffffffffff168173ffffffffffffffffffffffffffffffffffffffff1603610f8c576040517f08c379a0000000000000000000000000000000000000000000000000000000008152600401610f8390611eee565b60405180910390fd5b610f9581611478565b50565b600033905090565b600260015403610fe5576040517f08c379a0000000000000000000000000000000000000000000000000000000008152600401610fdc90611a96565b60405180910390fd5b60026001819055506000600760009054906101000a900473ffffffffffffffffffffffffffffffffffffffff1673ffffffffffffffffffffffffffffffffffffffff166323b872dd8585856040518463ffffffff1660e01b815260040161104e93929190611f0e565b6020604051808303816000875af115801561106d573d6000803e3d6000fd5b505050506040513d601f19601f82011682018060405250810190611091919061186e565b9050806110d3576040517f08c379a00000000000000000000000000000000000000000000000000000000081526004016110ca90611fb7565b60405180910390fd5b7fb5f2f6bec44711c6087502d7461275207702a329e1af710c37c8428a07d5ad0384848460405161110693929190611f0e565b60405180910390a15060018081905550505050565b600080600254905060005b8381101561116c578460025461113c9190611bb4565b8261114791906119f0565b91506002548261115791906119bf565b9150808061116490611fd7565b915050611126565b508091505092915050565b61117f6109c9565b6111be576040517f08c379a00000000000000000000000000000000000000000000000000000000081526004016111b59061206b565b60405180910390fd5b60008060146101000a81548160ff0219169083151502179055507f5db9ee0a495bf2e6ff9c91a7834c1ba4fdd244a5e8aa4e537bd38aeae4b073aa611201610f98565b60405161120e9190611781565b60405180910390a1565b60026001540361125d576040517f08c379a000000000000000000000000000000000000000000000000000000000815260040161125490611a96565b60405180910390fd5b60026001819055506000600860009054906101000a900473ffffffffffffffffffffffffffffffffffffffff1673ffffffffffffffffffffffffffffffffffffffff16633950935185846040518363ffffffff1660e01b81526004016112c4929190611819565b6020604051808303816000875af11580156112e3573d6000803e3d6000fd5b505050506040513d601f19601f82011682018060405250810190611307919061186e565b905080611349576040517f08c379a0000000000000000000000000000000000000000000000000000000008152600401611340906120fd565b60405180910390fd5b6000600860009054906101000a900473ffffffffffffffffffffffffffffffffffffffff1673ffffffffffffffffffffffffffffffffffffffff166323b872dd8686866040518463ffffffff1660e01b81526004016113aa93929190611f0e565b6020604051808303816000875af11580156113c9573d6000803e3d6000fd5b505050506040513d601f19601f820116820180604052508101906113ed919061186e565b90508061142f576040517f08c379a000000000000000000000000000000000000000000000000000000000815260040161142690612169565b60405180910390fd5b7f82899ebe9390a9cbfad84db70733c08e7dabb03238e3eea711bf5d0d2e2cfca385858560405161146293929190611f0e565b60405180910390a1505060018081905550505050565b60008060009054906101000a900473ffffffffffffffffffffffffffffffffffffffff169050816000806101000a81548173ffffffffffffffffffffffffffffffffffffffff021916908373ffffffffffffffffffffffffffffffffffffffff1602179055508173ffffffffffffffffffffffffffffffffffffffff168173ffffffffffffffffffffffffffffffffffffffff167f8be0079c531659141344cd1fd0a4f28419497f9722a3daafe3b4186f6b6457e060405160405180910390a35050565b6115446109c9565b15611584576040517f08c379a000000000000000000000000000000000000000000000000000000000815260040161157b90611b02565b60405180910390fd5b6001600060146101000a81548160ff0219169083151502179055507f62e78cea01bee320cd4e420270b5ea74000d11b0c9f74754ebdbfc544b05a2586115c8610f98565b6040516115d59190611781565b60405180910390a1565b600080fd5b600073ffffffffffffffffffffffffffffffffffffffff82169050919050565b600061160f826115e4565b9050919050565b61161f81611604565b811461162a57600080fd5b50565b60008135905061163c81611616565b92915050565b6000819050919050565b61165581611642565b811461166057600080fd5b50565b6000813590506116728161164c565b92915050565b6000806040838503121561168f5761168e6115df565b5b600061169d8582860161162d565b92505060206116ae85828601611663565b9150509250929050565b6116c181611642565b82525050565b60006020820190506116dc60008301846116b8565b92915050565b6000602082840312156116f8576116f76115df565b5b600061170684828501611663565b91505092915050565b60008115159050919050565b6117248161170f565b82525050565b600060208201905061173f600083018461171b565b92915050565b60006020828403121561175b5761175a6115df565b5b60006117698482850161162d565b91505092915050565b61177b81611604565b82525050565b60006020820190506117966000830184611772565b92915050565b600082825260208201905092915050565b7f4f776e61626c653a2063616c6c6572206973206e6f7420746865206f776e6572600082015250565b60006117e360208361179c565b91506117ee826117ad565b602082019050919050565b60006020820190508181036000830152611812816117d6565b9050919050565b600060408201905061182e6000830185611772565b61183b60208301846116b8565b9392505050565b61184b8161170f565b811461185657600080fd5b50565b60008151905061186881611842565b92915050565b600060208284031215611884576118836115df565b5b600061189284828501611859565b91505092915050565b7f4661696c656420746f20696e6372656173652049445320616c6c6f77616e636560008201527f2e00000000000000000000000000000000000000000000000000000000000000602082015250565b60006118f760218361179c565b91506119028261189b565b604082019050919050565b60006020820190508181036000830152611926816118ea565b9050919050565b7f4e487b7100000000000000000000000000000000000000000000000000000000600052601160045260246000fd5b600061196782611642565b915061197283611642565b9250828210156119855761198461192d565b5b828203905092915050565b7f4e487b7100000000000000000000000000000000000000000000000000000000600052601260045260246000fd5b60006119ca82611642565b91506119d583611642565b9250826119e5576119e4611990565b5b828204905092915050565b60006119fb82611642565b9150611a0683611642565b9250817fffffffffffffffffffffffffffffffffffffffffffffffffffffffffffffffff0483118215151615611a3f57611a3e61192d565b5b828202905092915050565b7f5265656e7472616e637947756172643a207265656e7472616e742063616c6c00600082015250565b6000611a80601f8361179c565b9150611a8b82611a4a565b602082019050919050565b60006020820190508181036000830152611aaf81611a73565b9050919050565b7f5061757361626c653a2070617573656400000000000000000000000000000000600082015250565b6000611aec60108361179c565b9150611af782611ab6565b602082019050919050565b60006020820190508181036000830152611b1b81611adf565b9050919050565b7f596f7527726520747279696e6720746f2065786368616e676520746f6f206c6960008201527f74746c65206f66204944532e0000000000000000000000000000000000000000602082015250565b6000611b7e602c8361179c565b9150611b8982611b22565b604082019050919050565b60006020820190508181036000830152611bad81611b71565b9050919050565b6000611bbf82611642565b9150611bca83611642565b9250827fffffffffffffffffffffffffffffffffffffffffffffffffffffffffffffffff03821115611bff57611bfe61192d565b5b828201905092915050565b600081519050611c198161164c565b92915050565b600060208284031215611c3557611c346115df565b5b6000611c4384828501611c0a565b91505092915050565b7f596f7527726520657863656564696e6720796f7572204944532062616c616e6360008201527f652e000000000000000000000000000000000000000000000000000000000000602082015250565b6000611ca860228361179c565b9150611cb382611c4c565b604082019050919050565b60006020820190508181036000830152611cd781611c9b565b9050919050565b7f4944532045786368616e676520636f6e747261637420686173206e6f7420656e60008201527f6f7567682044455354206c69717569646974792e000000000000000000000000602082015250565b6000611d3a60348361179c565b9150611d4582611cde565b604082019050919050565b60006020820190508181036000830152611d6981611d2d565b9050919050565b6000606082019050611d856000830186611772565b611d9260208301856116b8565b611d9f60408301846116b8565b949350505050565b60006dffffffffffffffffffffffffffff82169050919050565b611dca81611da7565b8114611dd557600080fd5b50565b600081519050611de781611dc1565b92915050565b600063ffffffff82169050919050565b611e0681611ded565b8114611e1157600080fd5b50565b600081519050611e2381611dfd565b92915050565b600080600060608486031215611e4257611e416115df565b5b6000611e5086828701611dd8565b9350506020611e6186828701611dd8565b9250506040611e7286828701611e14565b9150509250925092565b7f4f776e61626c653a206e6577206f776e657220697320746865207a65726f206160008201527f6464726573730000000000000000000000000000000000000000000000000000602082015250565b6000611ed860268361179c565b9150611ee382611e7c565b604082019050919050565b60006020820190508181036000830152611f0781611ecb565b9050919050565b6000606082019050611f236000830186611772565b611f306020830185611772565b611f3d60408301846116b8565b949350505050565b7f4661696c656420746f2073656e64204944532c20636865636b20796f7572206160008201527f6c6c6f77616e63652e0000000000000000000000000000000000000000000000602082015250565b6000611fa160298361179c565b9150611fac82611f45565b604082019050919050565b60006020820190508181036000830152611fd081611f94565b9050919050565b6000611fe282611642565b91507fffffffffffffffffffffffffffffffffffffffffffffffffffffffffffffffff82036120145761201361192d565b5b600182019050919050565b7f5061757361626c653a206e6f7420706175736564000000000000000000000000600082015250565b600061205560148361179c565b91506120608261201f565b602082019050919050565b6000602082019050818103600083015261208481612048565b9050919050565b7f4661696c656420746f20696e637265617365204445535420616c6c6f77616e6360008201527f652e000000000000000000000000000000000000000000000000000000000000602082015250565b60006120e760228361179c565b91506120f28261208b565b604082019050919050565b60006020820190508181036000830152612116816120da565b9050919050565b7f4661696c656420746f2073656e6420444553542e000000000000000000000000600082015250565b600061215360148361179c565b915061215e8261211d565b602082019050919050565b6000602082019050818103600083015261218281612146565b905091905056fea264697066735822122014ed079fac7f7517482e5619800a2f9fc67496506092e59044d7da52e58032f264736f6c634300080d0033",
  "immutableReferences": {},
  "source": "// SPDX-License-Identifier: MIT\n\npragma solidity ^0.8.10;\n\nimport \"@openzeppelin/contracts/access/Ownable.sol\";\nimport \"@openzeppelin/contracts/security/Pausable.sol\";\nimport \"@openzeppelin/contracts/security/ReentrancyGuard.sol\";\n\n\ninterface LPContract {\n    function getReserves() external view returns (uint112 _reserve0, uint112 _reserve1, uint32 _blockTimestampLast);\n}\n\ninterface ERC20Contract {\n    function transferFrom(address sender, address recipient, uint256 amount) external returns (bool);\n    function increaseAllowance(address spender, uint addedValue) external returns (bool);\n    function balanceOf(address account) external returns (uint256);\n}\n\n\ncontract destExchange is Ownable, Pausable, ReentrancyGuard {\n    event Exchange(address from, uint IDSAmount, uint DESTAmount);\n    event DESTTransfer(address from, address to, uint amount);\n    event IDSTransfer(address from, address to, uint amount);\n\n    uint decimals;\n    uint startDate;\n    uint startPrice;\n    uint growthRate;\n    \n    address LPAddress;\n    address IDSAddress;\n    address DESTAddress;\n    address feeRecipient;\n\n    constructor () {\n        startDate = block.timestamp;\n        startPrice = 30;\n        growthRate = 4831; // 1 + 0.004831\n        decimals = 10 ** 6;\n    }\n\n\n    /* Setters */\n\n    function setLPAddress(address wallet) external onlyOwner {\n        LPAddress = wallet;\n    }\n\n    function setIDSAddress(address wallet) external onlyOwner {\n        IDSAddress = wallet;\n    }\n\n    function setDESTAddress(address wallet) external onlyOwner {\n        DESTAddress = wallet;\n    }\n\n    function setFeesAddress(address wallet) external onlyOwner {\n        feeRecipient = wallet;\n    }\n\n\n    /* Internal Functions */\n\n    function calculateGrowth(uint rate, uint periods) internal view returns (uint) {\n        uint result = decimals;\n\n        for (uint i = 0; i < periods; i++) {\n            result *= (decimals + rate);\n            result /= decimals;\n        }\n\n        return result;\n    }\n\n    function transferDEST(address from, address to, uint amount) internal nonReentrant {\n        bool increased = ERC20Contract(DESTAddress).increaseAllowance(from, amount);\n        require(increased, \"Failed to increase DEST allowance.\");\n\n        bool sent = ERC20Contract(DESTAddress).transferFrom(from, to, amount);\n        require(sent, \"Failed to send DEST.\");\n\n        emit DESTTransfer(from, to, amount);\n    }\n\n    function transferIDS(address from, address to, uint amount) internal nonReentrant {\n        bool sent = ERC20Contract(IDSAddress).transferFrom(from, to, amount);\n        require(sent, \"Failed to send IDS, check your allowance.\");\n\n        emit IDSTransfer(from, to, amount);\n    }\n\n\n    /* Getters */\n\n    function idsPrice() public view returns (uint) {\n        uint periods = (block.timestamp - startDate) / 60 * 60 * 24;\n\n        return startPrice * calculateGrowth(growthRate, periods); // price in cents * decimals\n    }\n\n    function destPrice() public view returns (uint) {\n        (uint DESTReserve, uint BUSDReserve, ) = LPContract(LPAddress).getReserves();\n\n        return DESTReserve * decimals / BUSDReserve * 100; // price in cents * decimals\n    }\n    \n    function exchangeRate() public view returns (uint) {\n        return (idsPrice() * 10 ** 3) / destPrice(); // price * 10^3\n    }\n\n\n    /* Business Logic */\n\n    function exchange(uint amount) public nonReentrant whenNotPaused {\n        uint rate = exchangeRate();\n        uint fee = amount / 100 * 97;\n        require(fee > 0, \"You're trying to exchange too little of IDS.\");\n\n        amount -= fee;\n\n        uint pay = (amount * rate) / (10 ** 3);\n        require(pay > 0, \"You're trying to exchange too little of IDS.\");\n        \n        require(ERC20Contract(IDSAddress).balanceOf(msg.sender) >= amount + fee, \"You're exceeding your IDS balance.\");\n        require(ERC20Contract(DESTAddress).balanceOf(address(this)) >= pay, \"IDS Exchange contract has not enough DEST liquidity.\");\n        \n        transferIDS(msg.sender, address(this), amount);\n        transferIDS(msg.sender, feeRecipient, fee);\n\n        transferDEST(address(this), msg.sender, pay);\n\n        emit Exchange(msg.sender, amount + fee, pay);\n    }\n\n\n    /* Admin Functions */\n\n    function releaseDEST(address recipient, uint amount) external onlyOwner {\n        transferDEST(address(this), recipient, amount);\n    }\n\n    function releaseIDS(address recipient, uint amount) external onlyOwner {\n        bool increased = ERC20Contract(IDSAddress).increaseAllowance(address(this), amount);\n        require(increased, \"Failed to increase IDS allowance.\");\n\n        transferIDS(address(this), recipient, amount);\n    }\n\n    function pause() external onlyOwner {\n        _pause();\n    }\n\n    function unpause() external onlyOwner {\n        _unpause();\n    }\n}",
  "sourcePath": "/Users/vovkapultik/Blockchain/dest-sc/contracts/Exchange.sol",
  "compiler": {
    "name": "solc",
    "version": "0.8.13+commit.abaa5c0e.Emscripten.clang"
  },
  "schemaVersion": "3.4.7",
  "updatedAt": "2022-05-24T18:10:10.762Z",
  "devdoc": {
    "kind": "dev",
    "methods": {
      "owner()": {
        "details": "Returns the address of the current owner."
      },
      "paused()": {
        "details": "Returns true if the contract is paused, and false otherwise."
      },
      "renounceOwnership()": {
        "details": "Leaves the contract without owner. It will not be possible to call `onlyOwner` functions anymore. Can only be called by the current owner. NOTE: Renouncing ownership will leave the contract without an owner, thereby removing any functionality that is only available to the owner."
      },
      "transferOwnership(address)": {
        "details": "Transfers ownership of the contract to a new account (`newOwner`). Can only be called by the current owner."
      }
    },
    "version": 1
  },
  "userdoc": {
    "kind": "user",
    "methods": {},
    "version": 1
  }
}