{
  "contractName": "IDSExchange",
  "abi": [
    {
      "inputs": [
        {
          "internalType": "address",
          "name": "lp",
          "type": "address"
        },
        {
          "internalType": "address",
          "name": "ids",
          "type": "address"
        },
        {
          "internalType": "address",
          "name": "dest",
          "type": "address"
        }
      ],
      "stateMutability": "nonpayable",
      "type": "constructor"
    },
    {
      "anonymous": false,
      "inputs": [
        {
          "indexed": false,
          "internalType": "address",
          "name": "from",
          "type": "address"
        },
        {
          "indexed": false,
          "internalType": "address",
          "name": "to",
          "type": "address"
        },
        {
          "indexed": false,
          "internalType": "uint256",
          "name": "amount",
          "type": "uint256"
        }
      ],
      "name": "DESTTransfer",
      "type": "event"
    },
    {
      "anonymous": false,
      "inputs": [
        {
          "indexed": false,
          "internalType": "address",
          "name": "from",
          "type": "address"
        },
        {
          "indexed": false,
          "internalType": "uint256",
          "name": "IDSAmount",
          "type": "uint256"
        },
        {
          "indexed": false,
          "internalType": "uint256",
          "name": "DESTAmount",
          "type": "uint256"
        }
      ],
      "name": "Exchange",
      "type": "event"
    },
    {
      "anonymous": false,
      "inputs": [
        {
          "indexed": false,
          "internalType": "address",
          "name": "from",
          "type": "address"
        },
        {
          "indexed": false,
          "internalType": "address",
          "name": "to",
          "type": "address"
        },
        {
          "indexed": false,
          "internalType": "uint256",
          "name": "amount",
          "type": "uint256"
        }
      ],
      "name": "IDSTransfer",
      "type": "event"
    },
    {
      "anonymous": false,
      "inputs": [
        {
          "indexed": true,
          "internalType": "address",
          "name": "previousOwner",
          "type": "address"
        },
        {
          "indexed": true,
          "internalType": "address",
          "name": "newOwner",
          "type": "address"
        }
      ],
      "name": "OwnershipTransferred",
      "type": "event"
    },
    {
      "inputs": [],
      "name": "owner",
      "outputs": [
        {
          "internalType": "address",
          "name": "",
          "type": "address"
        }
      ],
      "stateMutability": "view",
      "type": "function"
    },
    {
      "inputs": [],
      "name": "renounceOwnership",
      "outputs": [],
      "stateMutability": "nonpayable",
      "type": "function"
    },
    {
      "inputs": [
        {
          "internalType": "address",
          "name": "newOwner",
          "type": "address"
        }
      ],
      "name": "transferOwnership",
      "outputs": [],
      "stateMutability": "nonpayable",
      "type": "function"
    },
    {
      "inputs": [],
      "name": "currentPrice",
      "outputs": [
        {
          "internalType": "uint256",
          "name": "",
          "type": "uint256"
        }
      ],
      "stateMutability": "view",
      "type": "function"
    },
    {
      "inputs": [],
      "name": "destPrice",
      "outputs": [
        {
          "internalType": "uint256",
          "name": "",
          "type": "uint256"
        }
      ],
      "stateMutability": "view",
      "type": "function"
    },
    {
      "inputs": [],
      "name": "exchangeRate",
      "outputs": [
        {
          "internalType": "uint256",
          "name": "",
          "type": "uint256"
        }
      ],
      "stateMutability": "view",
      "type": "function"
    },
    {
      "inputs": [
        {
          "internalType": "uint256",
          "name": "amount",
          "type": "uint256"
        }
      ],
      "name": "exchange",
      "outputs": [],
      "stateMutability": "nonpayable",
      "type": "function"
    },
    {
      "inputs": [
        {
          "internalType": "address",
          "name": "recipient",
          "type": "address"
        },
        {
          "internalType": "uint256",
          "name": "amount",
          "type": "uint256"
        }
      ],
      "name": "releaseDEST",
      "outputs": [],
      "stateMutability": "nonpayable",
      "type": "function"
    },
    {
      "inputs": [
        {
          "internalType": "address",
          "name": "recipient",
          "type": "address"
        },
        {
          "internalType": "uint256",
          "name": "amount",
          "type": "uint256"
        }
      ],
      "name": "releaseIDS",
      "outputs": [],
      "stateMutability": "nonpayable",
      "type": "function"
    }
  ],
  "bytecode": "0x60806040523480156200001157600080fd5b5060405162001c2538038062001c25833981810160405281019062000037919062000282565b620000576200004b6200014c60201b60201c565b6200015460201b60201c565b60018081905550620f424060028190555042600381905550601e6004819055506112df60058190555082600660006101000a81548173ffffffffffffffffffffffffffffffffffffffff021916908373ffffffffffffffffffffffffffffffffffffffff16021790555081600760006101000a81548173ffffffffffffffffffffffffffffffffffffffff021916908373ffffffffffffffffffffffffffffffffffffffff16021790555080600860006101000a81548173ffffffffffffffffffffffffffffffffffffffff021916908373ffffffffffffffffffffffffffffffffffffffff160217905550505050620002de565b600033905090565b60008060009054906101000a900473ffffffffffffffffffffffffffffffffffffffff169050816000806101000a81548173ffffffffffffffffffffffffffffffffffffffff021916908373ffffffffffffffffffffffffffffffffffffffff1602179055508173ffffffffffffffffffffffffffffffffffffffff168173ffffffffffffffffffffffffffffffffffffffff167f8be0079c531659141344cd1fd0a4f28419497f9722a3daafe3b4186f6b6457e060405160405180910390a35050565b600080fd5b600073ffffffffffffffffffffffffffffffffffffffff82169050919050565b60006200024a826200021d565b9050919050565b6200025c816200023d565b81146200026857600080fd5b50565b6000815190506200027c8162000251565b92915050565b6000806000606084860312156200029e576200029d62000218565b5b6000620002ae868287016200026b565b9350506020620002c1868287016200026b565b9250506040620002d4868287016200026b565b9150509250925092565b61193780620002ee6000396000f3fe608060405234801561001057600080fd5b50600436106100935760003560e01c80636f31a047116100665780636f31a0471461010c578063715018a6146101285780638da5cb5b146101325780639d1b464a14610150578063f2fde38b1461016e57610093565b80630abea9af146100985780633ba0b9a9146100b457806353556559146100d25780635aa51d8c146100ee575b600080fd5b6100b260048036038101906100ad9190610ef2565b61018a565b005b6100bc6102fa565b6040516100c99190610f41565b60405180910390f35b6100ec60048036038101906100e79190610f5c565b610328565b005b6100f66105fe565b6040516101039190610f41565b60405180910390f35b61012660048036038101906101219190610ef2565b6106e5565b005b610130610770565b005b61013a6107f8565b6040516101479190610f98565b60405180910390f35b610158610821565b6040516101659190610f41565b60405180910390f35b61018860048036038101906101839190610fb3565b61085f565b005b610192610956565b73ffffffffffffffffffffffffffffffffffffffff166101b06107f8565b73ffffffffffffffffffffffffffffffffffffffff1614610206576040517f08c379a00000000000000000000000000000000000000000000000000000000081526004016101fd9061103d565b60405180910390fd5b6000600760009054906101000a900473ffffffffffffffffffffffffffffffffffffffff1673ffffffffffffffffffffffffffffffffffffffff16633950935130846040518363ffffffff1660e01b815260040161026592919061105d565b6020604051808303816000875af1158015610284573d6000803e3d6000fd5b505050506040513d601f19601f820116820180604052508101906102a891906110be565b9050806102ea576040517f08c379a00000000000000000000000000000000000000000000000000000000081526004016102e19061115d565b60405180910390fd5b6102f530848461095e565b505050565b60006103046105fe565b6103e861030f610821565b61031991906111ac565b6103239190611235565b905090565b60026001540361036d576040517f08c379a0000000000000000000000000000000000000000000000000000000008152600401610364906112b2565b60405180910390fd5b6002600181905550600061037f6102fa565b905060006103e8828461039291906111ac565b61039c9190611235565b9050600081116103e1576040517f08c379a00000000000000000000000000000000000000000000000000000000081526004016103d890611344565b60405180910390fd5b82600760009054906101000a900473ffffffffffffffffffffffffffffffffffffffff1673ffffffffffffffffffffffffffffffffffffffff166370a08231336040518263ffffffff1660e01b815260040161043d9190610f98565b6020604051808303816000875af115801561045c573d6000803e3d6000fd5b505050506040513d601f19601f820116820180604052508101906104809190611379565b10156104c1576040517f08c379a00000000000000000000000000000000000000000000000000000000081526004016104b890611418565b60405180910390fd5b80600860009054906101000a900473ffffffffffffffffffffffffffffffffffffffff1673ffffffffffffffffffffffffffffffffffffffff166370a08231306040518263ffffffff1660e01b815260040161051d9190610f98565b6020604051808303816000875af115801561053c573d6000803e3d6000fd5b505050506040513d601f19601f820116820180604052508101906105609190611379565b10156105a1576040517f08c379a0000000000000000000000000000000000000000000000000000000008152600401610598906114aa565b60405180910390fd5b6105ac33308561095e565b6105b7303383610ad9565b7f26981b9aefbb0f732b0264bd34c255e831001eb50b06bc85b32cc39e143897213384836040516105ea939291906114ca565b60405180910390a150506001808190555050565b6000806000600660009054906101000a900473ffffffffffffffffffffffffffffffffffffffff1673ffffffffffffffffffffffffffffffffffffffff16630902f1ac6040518163ffffffff1660e01b8152600401606060405180830381865afa158015610670573d6000803e3d6000fd5b505050506040513d601f19601f820116820180604052508101906106949190611583565b506dffffffffffffffffffffffffffff1691506dffffffffffffffffffffffffffff169150606481600254846106ca91906111ac565b6106d49190611235565b6106de91906111ac565b9250505090565b6106ed610956565b73ffffffffffffffffffffffffffffffffffffffff1661070b6107f8565b73ffffffffffffffffffffffffffffffffffffffff1614610761576040517f08c379a00000000000000000000000000000000000000000000000000000000081526004016107589061103d565b60405180910390fd5b61076c308383610ad9565b5050565b610778610956565b73ffffffffffffffffffffffffffffffffffffffff166107966107f8565b73ffffffffffffffffffffffffffffffffffffffff16146107ec576040517f08c379a00000000000000000000000000000000000000000000000000000000081526004016107e39061103d565b60405180910390fd5b6107f66000610d39565b565b60008060009054906101000a900473ffffffffffffffffffffffffffffffffffffffff16905090565b600080603c6003544261083491906115d6565b61083e9190611235565b905061084c60055482610dfd565b60045461085991906111ac565b91505090565b610867610956565b73ffffffffffffffffffffffffffffffffffffffff166108856107f8565b73ffffffffffffffffffffffffffffffffffffffff16146108db576040517f08c379a00000000000000000000000000000000000000000000000000000000081526004016108d29061103d565b60405180910390fd5b600073ffffffffffffffffffffffffffffffffffffffff168173ffffffffffffffffffffffffffffffffffffffff160361094a576040517f08c379a00000000000000000000000000000000000000000000000000000000081526004016109419061167c565b60405180910390fd5b61095381610d39565b50565b600033905090565b6002600154036109a3576040517f08c379a000000000000000000000000000000000000000000000000000000000815260040161099a906112b2565b60405180910390fd5b60026001819055506000600760009054906101000a900473ffffffffffffffffffffffffffffffffffffffff1673ffffffffffffffffffffffffffffffffffffffff166323b872dd8585856040518463ffffffff1660e01b8152600401610a0c9392919061169c565b6020604051808303816000875af1158015610a2b573d6000803e3d6000fd5b505050506040513d601f19601f82011682018060405250810190610a4f91906110be565b905080610a91576040517f08c379a0000000000000000000000000000000000000000000000000000000008152600401610a8890611745565b60405180910390fd5b7fb5f2f6bec44711c6087502d7461275207702a329e1af710c37c8428a07d5ad03848484604051610ac49392919061169c565b60405180910390a15060018081905550505050565b600260015403610b1e576040517f08c379a0000000000000000000000000000000000000000000000000000000008152600401610b15906112b2565b60405180910390fd5b60026001819055506000600860009054906101000a900473ffffffffffffffffffffffffffffffffffffffff1673ffffffffffffffffffffffffffffffffffffffff16633950935185846040518363ffffffff1660e01b8152600401610b8592919061105d565b6020604051808303816000875af1158015610ba4573d6000803e3d6000fd5b505050506040513d601f19601f82011682018060405250810190610bc891906110be565b905080610c0a576040517f08c379a0000000000000000000000000000000000000000000000000000000008152600401610c01906117d7565b60405180910390fd5b6000600860009054906101000a900473ffffffffffffffffffffffffffffffffffffffff1673ffffffffffffffffffffffffffffffffffffffff166323b872dd8686866040518463ffffffff1660e01b8152600401610c6b9392919061169c565b6020604051808303816000875af1158015610c8a573d6000803e3d6000fd5b505050506040513d601f19601f82011682018060405250810190610cae91906110be565b905080610cf0576040517f08c379a0000000000000000000000000000000000000000000000000000000008152600401610ce790611843565b60405180910390fd5b7f82899ebe9390a9cbfad84db70733c08e7dabb03238e3eea711bf5d0d2e2cfca3858585604051610d239392919061169c565b60405180910390a1505060018081905550505050565b60008060009054906101000a900473ffffffffffffffffffffffffffffffffffffffff169050816000806101000a81548173ffffffffffffffffffffffffffffffffffffffff021916908373ffffffffffffffffffffffffffffffffffffffff1602179055508173ffffffffffffffffffffffffffffffffffffffff168173ffffffffffffffffffffffffffffffffffffffff167f8be0079c531659141344cd1fd0a4f28419497f9722a3daafe3b4186f6b6457e060405160405180910390a35050565b600080600254905060005b83811015610e4e5784600254610e1e9190611863565b82610e2991906111ac565b915060025482610e399190611235565b91508080610e46906118b9565b915050610e08565b508091505092915050565b600080fd5b600073ffffffffffffffffffffffffffffffffffffffff82169050919050565b6000610e8982610e5e565b9050919050565b610e9981610e7e565b8114610ea457600080fd5b50565b600081359050610eb681610e90565b92915050565b6000819050919050565b610ecf81610ebc565b8114610eda57600080fd5b50565b600081359050610eec81610ec6565b92915050565b60008060408385031215610f0957610f08610e59565b5b6000610f1785828601610ea7565b9250506020610f2885828601610edd565b9150509250929050565b610f3b81610ebc565b82525050565b6000602082019050610f566000830184610f32565b92915050565b600060208284031215610f7257610f71610e59565b5b6000610f8084828501610edd565b91505092915050565b610f9281610e7e565b82525050565b6000602082019050610fad6000830184610f89565b92915050565b600060208284031215610fc957610fc8610e59565b5b6000610fd784828501610ea7565b91505092915050565b600082825260208201905092915050565b7f4f776e61626c653a2063616c6c6572206973206e6f7420746865206f776e6572600082015250565b6000611027602083610fe0565b915061103282610ff1565b602082019050919050565b600060208201905081810360008301526110568161101a565b9050919050565b60006040820190506110726000830185610f89565b61107f6020830184610f32565b9392505050565b60008115159050919050565b61109b81611086565b81146110a657600080fd5b50565b6000815190506110b881611092565b92915050565b6000602082840312156110d4576110d3610e59565b5b60006110e2848285016110a9565b91505092915050565b7f4661696c656420746f20696e6372656173652049445320616c6c6f77616e636560008201527f2e00000000000000000000000000000000000000000000000000000000000000602082015250565b6000611147602183610fe0565b9150611152826110eb565b604082019050919050565b600060208201905081810360008301526111768161113a565b9050919050565b7f4e487b7100000000000000000000000000000000000000000000000000000000600052601160045260246000fd5b60006111b782610ebc565b91506111c283610ebc565b9250817fffffffffffffffffffffffffffffffffffffffffffffffffffffffffffffffff04831182151516156111fb576111fa61117d565b5b828202905092915050565b7f4e487b7100000000000000000000000000000000000000000000000000000000600052601260045260246000fd5b600061124082610ebc565b915061124b83610ebc565b92508261125b5761125a611206565b5b828204905092915050565b7f5265656e7472616e637947756172643a207265656e7472616e742063616c6c00600082015250565b600061129c601f83610fe0565b91506112a782611266565b602082019050919050565b600060208201905081810360008301526112cb8161128f565b9050919050565b7f596f7527726520747279696e6720746f2065786368616e676520746f6f206c6960008201527f74746c65206f66204944532e0000000000000000000000000000000000000000602082015250565b600061132e602c83610fe0565b9150611339826112d2565b604082019050919050565b6000602082019050818103600083015261135d81611321565b9050919050565b60008151905061137381610ec6565b92915050565b60006020828403121561138f5761138e610e59565b5b600061139d84828501611364565b91505092915050565b7f596f7527726520657863656564696e6720796f7572204944532062616c616e6360008201527f652e000000000000000000000000000000000000000000000000000000000000602082015250565b6000611402602283610fe0565b915061140d826113a6565b604082019050919050565b60006020820190508181036000830152611431816113f5565b9050919050565b7f4944532045786368616e676520636f6e747261637420686173206e6f7420656e60008201527f6f7567682044455354206c69717569646974792e000000000000000000000000602082015250565b6000611494603483610fe0565b915061149f82611438565b604082019050919050565b600060208201905081810360008301526114c381611487565b9050919050565b60006060820190506114df6000830186610f89565b6114ec6020830185610f32565b6114f96040830184610f32565b949350505050565b60006dffffffffffffffffffffffffffff82169050919050565b61152481611501565b811461152f57600080fd5b50565b6000815190506115418161151b565b92915050565b600063ffffffff82169050919050565b61156081611547565b811461156b57600080fd5b50565b60008151905061157d81611557565b92915050565b60008060006060848603121561159c5761159b610e59565b5b60006115aa86828701611532565b93505060206115bb86828701611532565b92505060406115cc8682870161156e565b9150509250925092565b60006115e182610ebc565b91506115ec83610ebc565b9250828210156115ff576115fe61117d565b5b828203905092915050565b7f4f776e61626c653a206e6577206f776e657220697320746865207a65726f206160008201527f6464726573730000000000000000000000000000000000000000000000000000602082015250565b6000611666602683610fe0565b91506116718261160a565b604082019050919050565b6000602082019050818103600083015261169581611659565b9050919050565b60006060820190506116b16000830186610f89565b6116be6020830185610f89565b6116cb6040830184610f32565b949350505050565b7f4661696c656420746f2073656e64204944532c20636865636b20796f7572206160008201527f6c6c6f77616e63652e0000000000000000000000000000000000000000000000602082015250565b600061172f602983610fe0565b915061173a826116d3565b604082019050919050565b6000602082019050818103600083015261175e81611722565b9050919050565b7f4661696c656420746f20696e637265617365204445535420616c6c6f77616e6360008201527f652e000000000000000000000000000000000000000000000000000000000000602082015250565b60006117c1602283610fe0565b91506117cc82611765565b604082019050919050565b600060208201905081810360008301526117f0816117b4565b9050919050565b7f4661696c656420746f2073656e6420444553542e000000000000000000000000600082015250565b600061182d601483610fe0565b9150611838826117f7565b602082019050919050565b6000602082019050818103600083015261185c81611820565b9050919050565b600061186e82610ebc565b915061187983610ebc565b9250827fffffffffffffffffffffffffffffffffffffffffffffffffffffffffffffffff038211156118ae576118ad61117d565b5b828201905092915050565b60006118c482610ebc565b91507fffffffffffffffffffffffffffffffffffffffffffffffffffffffffffffffff82036118f6576118f561117d565b5b60018201905091905056fea26469706673582212200b5c415ff3b5d6159feabc0ddf49bb0990d1b801d58795959b749b8ab0ef58ed64736f6c634300080d0033",
  "immutableReferences": {},
  "source": "// SPDX-License-Identifier: MIT\n\npragma solidity ^0.8.10;\n\nimport \"@openzeppelin/contracts/access/Ownable.sol\";\nimport \"@openzeppelin/contracts/security/ReentrancyGuard.sol\";\n\n\ninterface LPContract {\n    function getReserves() external view returns (uint112 _reserve0, uint112 _reserve1, uint32 _blockTimestampLast);\n}\n\ninterface ERC20Contract {\n    function transferFrom(address sender, address recipient, uint256 amount) external returns (bool);\n    function increaseAllowance(address spender, uint addedValue) external returns (bool);\n    function balanceOf(address account) external returns (uint256);\n}\n\n\ncontract IDSExchange is Ownable, ReentrancyGuard {\n    event Exchange(address from, uint IDSAmount, uint DESTAmount);\n    event DESTTransfer(address from, address to, uint amount);\n    event IDSTransfer(address from, address to, uint amount);\n\n    uint decimals;\n    uint startDate;\n    uint startPrice;\n    uint growthRate;\n    \n    address LPAddress;\n    address IDSAddress;\n    address DESTAddress;\n\n    constructor (address lp, address ids, address dest) {\n        decimals = 10 ** 6;\n        startDate = block.timestamp;\n        startPrice = 30;\n        growthRate = 4831; // 0.004831 aka 0.4831%\n\n        LPAddress = lp;\n        IDSAddress = ids;\n        DESTAddress = dest;\n    }\n\n\n    function calculateGrowth(uint rate, uint periods) internal view returns (uint) {\n        uint result = decimals;\n\n        for (uint i = 0; i < periods; i++) {\n            result *= (decimals + rate);\n            result /= decimals;\n        }\n\n        return result;\n    }\n\n    function currentPrice() public view returns (uint) {\n        uint periods = (block.timestamp - startDate) / 60; // * 60 * 24;\n\n        return startPrice * calculateGrowth(growthRate, periods); // price in cents * decimals\n    }\n\n    function destPrice() public view returns (uint) {\n        (uint DESTReserve, uint BUSDReserve, ) = LPContract(LPAddress).getReserves();\n\n        return DESTReserve * decimals / BUSDReserve * 100; // price in cents * decimals\n    }\n    \n    function exchangeRate() public view returns (uint) {\n        return (currentPrice() * 10 ** 3) / destPrice(); // price * 10^3\n    }\n\n    function exchange(uint amount) public nonReentrant {\n        uint rate = exchangeRate();\n        uint pay = (amount * rate) / (10 ** 3);\n\n        require(pay > 0, \"You're trying to exchange too little of IDS.\");\n        \n        require(ERC20Contract(IDSAddress).balanceOf(msg.sender) >= amount, \"You're exceeding your IDS balance.\");\n        require(ERC20Contract(DESTAddress).balanceOf(address(this)) >= pay, \"IDS Exchange contract has not enough DEST liquidity.\");\n        \n        transferIDS(msg.sender, address(this), amount);\n        transferDEST(address(this), msg.sender, pay);\n\n        emit Exchange(msg.sender, amount, pay);\n    }\n\n    function transferDEST(address from, address to, uint amount) internal nonReentrant {\n        bool increased = ERC20Contract(DESTAddress).increaseAllowance(from, amount);\n        require(increased, \"Failed to increase DEST allowance.\");\n\n        bool sent = ERC20Contract(DESTAddress).transferFrom(from, to, amount);\n        require(sent, \"Failed to send DEST.\");\n\n        emit DESTTransfer(from, to, amount);\n    }\n\n    function transferIDS(address from, address to, uint amount) internal nonReentrant {\n        bool sent = ERC20Contract(IDSAddress).transferFrom(from, to, amount);\n        require(sent, \"Failed to send IDS, check your allowance.\");\n\n        emit IDSTransfer(from, to, amount);\n    }\n\n    function releaseDEST(address recipient, uint amount) external onlyOwner {\n        transferDEST(address(this), recipient, amount);\n    }\n\n    function releaseIDS(address recipient, uint amount)  external onlyOwner {\n        bool increased = ERC20Contract(IDSAddress).increaseAllowance(address(this), amount);\n        require(increased, \"Failed to increase IDS allowance.\");\n\n        transferIDS(address(this), recipient, amount);\n    }\n}",
  "sourcePath": "/Users/vovkapultik/Blockchain/dest-sc/contracts/Exchange.sol",
  "compiler": {
    "name": "solc",
    "version": "0.8.13+commit.abaa5c0e.Emscripten.clang"
  },
  "schemaVersion": "3.4.7",
  "updatedAt": "2022-05-06T16:32:00.978Z",
  "devdoc": {
    "kind": "dev",
    "methods": {
      "owner()": {
        "details": "Returns the address of the current owner."
      },
      "renounceOwnership()": {
        "details": "Leaves the contract without owner. It will not be possible to call `onlyOwner` functions anymore. Can only be called by the current owner. NOTE: Renouncing ownership will leave the contract without an owner, thereby removing any functionality that is only available to the owner."
      },
      "transferOwnership(address)": {
        "details": "Transfers ownership of the contract to a new account (`newOwner`). Can only be called by the current owner."
      }
    },
    "version": 1
  },
  "userdoc": {
    "kind": "user",
    "methods": {},
    "version": 1
  }
}