{
  "contractName": "LPContract",
  "abi": [
    {
      "inputs": [],
      "name": "getReserves",
      "outputs": [
        {
          "internalType": "uint112",
          "name": "_reserve0",
          "type": "uint112"
        },
        {
          "internalType": "uint112",
          "name": "_reserve1",
          "type": "uint112"
        },
        {
          "internalType": "uint32",
          "name": "_blockTimestampLast",
          "type": "uint32"
        }
      ],
      "stateMutability": "pure",
      "type": "function"
    }
  ],
  "bytecode": "0x608060405234801561001057600080fd5b5061010b806100206000396000f3fe6080604052348015600f57600080fd5b506004361060285760003560e01c80630902f1ac14602d575b600080fd5b60336049565b60405160409392919060a4565b60405180910390f35b6000806000607b92506101e9915060009050909192565b60006dffffffffffffffffffffffffffff82169050919050565b6081816060565b82525050565b600063ffffffff82169050919050565b609e816087565b82525050565b600060608201905060b76000830186607a565b60c26020830185607a565b60cd60408301846097565b94935050505056fea2646970667358221220b06b41b6c1c07f050fe40abe8c8b6d25c13ba243be9794f75160d7c2a1b57dd264736f6c634300080d0033",
  "immutableReferences": {},
  "source": "// SPDX-License-Identifier: MIT\n\npragma solidity ^0.8.10;\n\n\ncontract LPContract {\n\n    function getReserves() public pure returns (uint112 _reserve0, uint112 _reserve1, uint32 _blockTimestampLast) {\n        _reserve0 = 123;\n        _reserve1 = 489;\n        _blockTimestampLast = 0;\n    }\n    \n}",
  "sourcePath": "/Users/vovkapultik/Blockchain/dest-sc/contracts/LPContract.sol",
  "compiler": {
    "name": "solc",
    "version": "0.8.13+commit.abaa5c0e.Emscripten.clang"
  },
  "schemaVersion": "3.4.7",
  "updatedAt": "2022-05-24T18:17:14.016Z",
  "devdoc": {
    "kind": "dev",
    "methods": {},
    "version": 1
  },
  "userdoc": {
    "kind": "user",
    "methods": {},
    "version": 1
  }
}