{
  "contractName": "Staking",
  "abi": [
    {
      "inputs": [
        {
          "internalType": "address",
          "name": "lp",
          "type": "address"
        },
        {
          "internalType": "address",
          "name": "ids",
          "type": "address"
        },
        {
          "internalType": "address",
          "name": "exchange",
          "type": "address"
        },
        {
          "internalType": "address",
          "name": "fees",
          "type": "address"
        }
      ],
      "stateMutability": "nonpayable",
      "type": "constructor"
    },
    {
      "anonymous": false,
      "inputs": [
        {
          "indexed": true,
          "internalType": "address",
          "name": "previousOwner",
          "type": "address"
        },
        {
          "indexed": true,
          "internalType": "address",
          "name": "newOwner",
          "type": "address"
        }
      ],
      "name": "OwnershipTransferred",
      "type": "event"
    },
    {
      "anonymous": false,
      "inputs": [
        {
          "indexed": false,
          "internalType": "address",
          "name": "account",
          "type": "address"
        }
      ],
      "name": "Paused",
      "type": "event"
    },
    {
      "anonymous": false,
      "inputs": [
        {
          "indexed": false,
          "internalType": "address",
          "name": "wallet",
          "type": "address"
        },
        {
          "indexed": false,
          "internalType": "uint256",
          "name": "amount",
          "type": "uint256"
        }
      ],
      "name": "ProfitWithdrawal",
      "type": "event"
    },
    {
      "anonymous": false,
      "inputs": [
        {
          "indexed": false,
          "internalType": "address",
          "name": "wallet",
          "type": "address"
        },
        {
          "indexed": false,
          "internalType": "uint256",
          "name": "oldAmount",
          "type": "uint256"
        },
        {
          "indexed": false,
          "internalType": "uint256",
          "name": "newAmount",
          "type": "uint256"
        }
      ],
      "name": "Restake",
      "type": "event"
    },
    {
      "anonymous": false,
      "inputs": [
        {
          "indexed": false,
          "internalType": "address",
          "name": "wallet",
          "type": "address"
        },
        {
          "indexed": false,
          "internalType": "uint256",
          "name": "amount",
          "type": "uint256"
        }
      ],
      "name": "Stake",
      "type": "event"
    },
    {
      "anonymous": false,
      "inputs": [
        {
          "indexed": false,
          "internalType": "address",
          "name": "account",
          "type": "address"
        }
      ],
      "name": "Unpaused",
      "type": "event"
    },
    {
      "anonymous": false,
      "inputs": [
        {
          "indexed": false,
          "internalType": "address",
          "name": "wallet",
          "type": "address"
        },
        {
          "indexed": false,
          "internalType": "uint256",
          "name": "amount",
          "type": "uint256"
        }
      ],
      "name": "Unstake",
      "type": "event"
    },
    {
      "inputs": [],
      "name": "owner",
      "outputs": [
        {
          "internalType": "address",
          "name": "",
          "type": "address"
        }
      ],
      "stateMutability": "view",
      "type": "function"
    },
    {
      "inputs": [],
      "name": "paused",
      "outputs": [
        {
          "internalType": "bool",
          "name": "",
          "type": "bool"
        }
      ],
      "stateMutability": "view",
      "type": "function"
    },
    {
      "inputs": [
        {
          "internalType": "address",
          "name": "",
          "type": "address"
        }
      ],
      "name": "referralProfits",
      "outputs": [
        {
          "internalType": "uint256",
          "name": "",
          "type": "uint256"
        }
      ],
      "stateMutability": "view",
      "type": "function"
    },
    {
      "inputs": [
        {
          "internalType": "address",
          "name": "",
          "type": "address"
        }
      ],
      "name": "referrals",
      "outputs": [
        {
          "internalType": "address",
          "name": "",
          "type": "address"
        }
      ],
      "stateMutability": "view",
      "type": "function"
    },
    {
      "inputs": [],
      "name": "renounceOwnership",
      "outputs": [],
      "stateMutability": "nonpayable",
      "type": "function"
    },
    {
      "inputs": [
        {
          "internalType": "address",
          "name": "",
          "type": "address"
        }
      ],
      "name": "stakings",
      "outputs": [
        {
          "internalType": "uint256",
          "name": "startDate",
          "type": "uint256"
        },
        {
          "internalType": "uint256",
          "name": "lastClaimDate",
          "type": "uint256"
        },
        {
          "internalType": "uint256",
          "name": "LPAmount",
          "type": "uint256"
        },
        {
          "internalType": "uint256",
          "name": "initialIDSAmount",
          "type": "uint256"
        },
        {
          "internalType": "uint256",
          "name": "initialBUSDAmount",
          "type": "uint256"
        }
      ],
      "stateMutability": "view",
      "type": "function"
    },
    {
      "inputs": [
        {
          "internalType": "address",
          "name": "newOwner",
          "type": "address"
        }
      ],
      "name": "transferOwnership",
      "outputs": [],
      "stateMutability": "nonpayable",
      "type": "function"
    },
    {
      "inputs": [
        {
          "internalType": "address",
          "name": "wallet",
          "type": "address"
        }
      ],
      "name": "setFeesAddress",
      "outputs": [],
      "stateMutability": "nonpayable",
      "type": "function"
    },
    {
      "inputs": [
        {
          "internalType": "uint256",
          "name": "LPTokensAmount",
          "type": "uint256"
        }
      ],
      "name": "LPtoIDS",
      "outputs": [
        {
          "internalType": "uint256",
          "name": "",
          "type": "uint256"
        }
      ],
      "stateMutability": "nonpayable",
      "type": "function"
    },
    {
      "inputs": [
        {
          "internalType": "uint256",
          "name": "LPTokensAmount",
          "type": "uint256"
        }
      ],
      "name": "LPtoBUSD",
      "outputs": [
        {
          "internalType": "uint256",
          "name": "",
          "type": "uint256"
        }
      ],
      "stateMutability": "view",
      "type": "function"
    },
    {
      "inputs": [
        {
          "internalType": "address",
          "name": "wallet",
          "type": "address"
        }
      ],
      "name": "calculateProfit",
      "outputs": [
        {
          "internalType": "uint256",
          "name": "",
          "type": "uint256"
        }
      ],
      "stateMutability": "view",
      "type": "function"
    },
    {
      "inputs": [
        {
          "internalType": "uint256",
          "name": "amount",
          "type": "uint256"
        },
        {
          "internalType": "address",
          "name": "referrer",
          "type": "address"
        }
      ],
      "name": "stake",
      "outputs": [],
      "stateMutability": "nonpayable",
      "type": "function"
    },
    {
      "inputs": [],
      "name": "unstake",
      "outputs": [],
      "stateMutability": "nonpayable",
      "type": "function"
    },
    {
      "inputs": [],
      "name": "withdrawProfit",
      "outputs": [],
      "stateMutability": "nonpayable",
      "type": "function"
    },
    {
      "inputs": [],
      "name": "withdrawReferralProfit",
      "outputs": [],
      "stateMutability": "nonpayable",
      "type": "function"
    },
    {
      "inputs": [
        {
          "internalType": "address",
          "name": "recipient",
          "type": "address"
        },
        {
          "internalType": "uint256",
          "name": "amount",
          "type": "uint256"
        }
      ],
      "name": "releaseIDS",
      "outputs": [],
      "stateMutability": "nonpayable",
      "type": "function"
    },
    {
      "inputs": [],
      "name": "pause",
      "outputs": [],
      "stateMutability": "nonpayable",
      "type": "function"
    },
    {
      "inputs": [],
      "name": "unpause",
      "outputs": [],
      "stateMutability": "nonpayable",
      "type": "function"
    }
  ],
  "bytecode": "0x60806040523480156200001157600080fd5b5060405162002655380380620026558339818101604052810190620000379190620002da565b620000576200004b620001a460201b60201c565b620001ac60201b60201c565b60008060146101000a81548160ff02191690831515021790555060018081905550621fca05600281905550633b9aca00600381905550610e1060048190555083600560006101000a81548173ffffffffffffffffffffffffffffffffffffffff021916908373ffffffffffffffffffffffffffffffffffffffff16021790555082600660006101000a81548173ffffffffffffffffffffffffffffffffffffffff021916908373ffffffffffffffffffffffffffffffffffffffff16021790555081600760006101000a81548173ffffffffffffffffffffffffffffffffffffffff021916908373ffffffffffffffffffffffffffffffffffffffff16021790555080600860006101000a81548173ffffffffffffffffffffffffffffffffffffffff021916908373ffffffffffffffffffffffffffffffffffffffff160217905550505050506200034c565b600033905090565b60008060009054906101000a900473ffffffffffffffffffffffffffffffffffffffff169050816000806101000a81548173ffffffffffffffffffffffffffffffffffffffff021916908373ffffffffffffffffffffffffffffffffffffffff1602179055508173ffffffffffffffffffffffffffffffffffffffff168173ffffffffffffffffffffffffffffffffffffffff167f8be0079c531659141344cd1fd0a4f28419497f9722a3daafe3b4186f6b6457e060405160405180910390a35050565b600080fd5b600073ffffffffffffffffffffffffffffffffffffffff82169050919050565b6000620002a28262000275565b9050919050565b620002b48162000295565b8114620002c057600080fd5b50565b600081519050620002d481620002a9565b92915050565b60008060008060808587031215620002f757620002f662000270565b5b60006200030787828801620002c3565b94505060206200031a87828801620002c3565b93505060406200032d87828801620002c3565b92505060606200034087828801620002c3565b91505092959194509250565b6122f9806200035c6000396000f3fe608060405234801561001057600080fd5b50600436106101165760003560e01c806385fa38f0116100a2578063b1c1750611610071578063b1c175061461026d578063ce2ffe171461029d578063dc6e13e1146102a7578063f2fde38b146102db578063fafe645b146102f757610116565b806385fa38f0146101e55780638da5cb5b14610215578063959499b6146102335780639ca423b31461023d57610116565b8063715018a6116100e9578063715018a614610169578063736e4f57146101735780637acb77571461018f5780638275f2d6146101ab5780638456cb59146101db57610116565b80630abea9af1461011b5780632def6620146101375780633f4ba83a146101415780635c975abb1461014b575b600080fd5b610135600480360381019061013091906119af565b610327565b005b61013f610497565b005b61014961059d565b005b610153610623565b6040516101609190611a0a565b60405180910390f35b610171610639565b005b61018d60048036038101906101889190611a25565b6106c1565b005b6101a960048036038101906101a49190611a52565b610781565b005b6101c560048036038101906101c09190611a25565b610a1c565b6040516101d29190611aa1565b60405180910390f35b6101e3610a34565b005b6101ff60048036038101906101fa9190611abc565b610aba565b60405161020c9190611aa1565b60405180910390f35b61021d610c23565b60405161022a9190611af8565b60405180910390f35b61023b610c4c565b005b61025760048036038101906102529190611a25565b610e6a565b6040516102649190611af8565b60405180910390f35b61028760048036038101906102829190611a25565b610e9d565b6040516102949190611aa1565b60405180910390f35b6102a5610f3b565b005b6102c160048036038101906102bc9190611a25565b61100b565b6040516102d2959493929190611b13565b60405180910390f35b6102f560048036038101906102f09190611a25565b611041565b005b610311600480360381019061030c9190611abc565b611138565b60405161031e9190611aa1565b60405180910390f35b61032f61135a565b73ffffffffffffffffffffffffffffffffffffffff1661034d610c23565b73ffffffffffffffffffffffffffffffffffffffff16146103a3576040517f08c379a000000000000000000000000000000000000000000000000000000000815260040161039a90611bc3565b60405180910390fd5b6000600660009054906101000a900473ffffffffffffffffffffffffffffffffffffffff1673ffffffffffffffffffffffffffffffffffffffff16633950935130846040518363ffffffff1660e01b8152600401610402929190611be3565b6020604051808303816000875af1158015610421573d6000803e3d6000fd5b505050506040513d601f19601f820116820180604052508101906104459190611c38565b905080610487576040517f08c379a000000000000000000000000000000000000000000000000000000000815260040161047e90611cd7565b60405180910390fd5b610492308484611362565b505050565b61049f610c4c565b6000600960003373ffffffffffffffffffffffffffffffffffffffff1673ffffffffffffffffffffffffffffffffffffffff1681526020019081526020016000209050600081600201549050600960003373ffffffffffffffffffffffffffffffffffffffff1673ffffffffffffffffffffffffffffffffffffffff168152602001908152602001600020600080820160009055600182016000905560028201600090556003820160009055600482016000905550506105603033836114a2565b7f85082129d87b2fe11527cb1b3b7a520aeb5aa6913f88a3d8757fe40d1db02fdd3382604051610591929190611be3565b60405180910390a15050565b6105a561135a565b73ffffffffffffffffffffffffffffffffffffffff166105c3610c23565b73ffffffffffffffffffffffffffffffffffffffff1614610619576040517f08c379a000000000000000000000000000000000000000000000000000000000815260040161061090611bc3565b60405180910390fd5b61062161170e565b565b60008060149054906101000a900460ff16905090565b61064161135a565b73ffffffffffffffffffffffffffffffffffffffff1661065f610c23565b73ffffffffffffffffffffffffffffffffffffffff16146106b5576040517f08c379a00000000000000000000000000000000000000000000000000000000081526004016106ac90611bc3565b60405180910390fd5b6106bf60006117af565b565b6106c961135a565b73ffffffffffffffffffffffffffffffffffffffff166106e7610c23565b73ffffffffffffffffffffffffffffffffffffffff161461073d576040517f08c379a000000000000000000000000000000000000000000000000000000000815260040161073490611bc3565b60405180910390fd5b80600860006101000a81548173ffffffffffffffffffffffffffffffffffffffff021916908373ffffffffffffffffffffffffffffffffffffffff16021790555050565b600073ffffffffffffffffffffffffffffffffffffffff16600a60003373ffffffffffffffffffffffffffffffffffffffff1673ffffffffffffffffffffffffffffffffffffffff16815260200190815260200160002060009054906101000a900473ffffffffffffffffffffffffffffffffffffffff1673ffffffffffffffffffffffffffffffffffffffff16036108935780600a60003373ffffffffffffffffffffffffffffffffffffffff1673ffffffffffffffffffffffffffffffffffffffff16815260200190815260200160002060006101000a81548173ffffffffffffffffffffffffffffffffffffffff021916908373ffffffffffffffffffffffffffffffffffffffff1602179055505b61089e3330846114a2565b6000600960003373ffffffffffffffffffffffffffffffffffffffff1673ffffffffffffffffffffffffffffffffffffffff16815260200190815260200160002090506000600960003373ffffffffffffffffffffffffffffffffffffffff1673ffffffffffffffffffffffffffffffffffffffff168152602001908152602001600020600001541461098657610933610c4c565b7fe2d4f7d2cbc42c0e28598ad885ea0822049fcdecbd5a05e5200be15473ccec0633826002015485846002015461096a9190611d26565b60405161097993929190611d7c565b60405180910390a16109c0565b7febedb8b3c678666e7f36970bc8f57abf6d8fa2e828c0da91ea5b75bf68ed101a33846040516109b7929190611be3565b60405180910390a15b428160000181905550428160010181905550828160020160008282546109e69190611d26565b925050819055506109fa8160020154611138565b8160030181905550610a0f8160020154610aba565b8160040181905550505050565b600b6020528060005260406000206000915090505481565b610a3c61135a565b73ffffffffffffffffffffffffffffffffffffffff16610a5a610c23565b73ffffffffffffffffffffffffffffffffffffffff1614610ab0576040517f08c379a0000000000000000000000000000000000000000000000000000000008152600401610aa790611bc3565b60405180910390fd5b610ab8611873565b565b600080600560009054906101000a900473ffffffffffffffffffffffffffffffffffffffff1673ffffffffffffffffffffffffffffffffffffffff16630902f1ac6040518163ffffffff1660e01b8152600401606060405180830381865afa158015610b2a573d6000803e3d6000fd5b505050506040513d601f19601f82011682018060405250810190610b4e9190611e35565b506dffffffffffffffffffffffffffff169150506000600560009054906101000a900473ffffffffffffffffffffffffffffffffffffffff1673ffffffffffffffffffffffffffffffffffffffff166318160ddd6040518163ffffffff1660e01b8152600401602060405180830381865afa158015610bd1573d6000803e3d6000fd5b505050506040513d601f19601f82011682018060405250810190610bf59190611e9d565b90508084600284610c069190611eca565b610c109190611eca565b610c1a9190611f53565b92505050919050565b60008060009054906101000a900473ffffffffffffffffffffffffffffffffffffffff16905090565b6000610c5733610e9d565b90506000600960003373ffffffffffffffffffffffffffffffffffffffff1673ffffffffffffffffffffffffffffffffffffffff1681526020019081526020016000209050428160010181905550610cb0303384611362565b600060096000600a60003373ffffffffffffffffffffffffffffffffffffffff1673ffffffffffffffffffffffffffffffffffffffff16815260200190815260200160002060009054906101000a900473ffffffffffffffffffffffffffffffffffffffff1673ffffffffffffffffffffffffffffffffffffffff1673ffffffffffffffffffffffffffffffffffffffff16815260200190815260200160002090506064816004015410610e2c576064600384610d6d9190611eca565b610d779190611f53565b600b6000600a60003373ffffffffffffffffffffffffffffffffffffffff1673ffffffffffffffffffffffffffffffffffffffff16815260200190815260200160002060009054906101000a900473ffffffffffffffffffffffffffffffffffffffff1673ffffffffffffffffffffffffffffffffffffffff1673ffffffffffffffffffffffffffffffffffffffff1681526020019081526020016000206000828254610e249190611d26565b925050819055505b7fd65d7b028c704b54bcbe20b09b06f59223a87a757489cba0ab12afbb796472393384604051610e5d929190611be3565b60405180910390a1505050565b600a6020528060005260406000206000915054906101000a900473ffffffffffffffffffffffffffffffffffffffff1681565b600080600960008473ffffffffffffffffffffffffffffffffffffffff1673ffffffffffffffffffffffffffffffffffffffff16815260200190815260200160002090506000816001015442610ef39190611f84565b9050600060045482610f059190611f53565b9050600354816002548560030154610f1d9190611eca565b610f279190611eca565b610f319190611f53565b9350505050919050565b6000600b60003373ffffffffffffffffffffffffffffffffffffffff1673ffffffffffffffffffffffffffffffffffffffff1681526020019081526020016000205490506000600b60003373ffffffffffffffffffffffffffffffffffffffff1673ffffffffffffffffffffffffffffffffffffffff16815260200190815260200160002081905550610fcf303383611362565b7fd65d7b028c704b54bcbe20b09b06f59223a87a757489cba0ab12afbb796472393382604051611000929190611be3565b60405180910390a150565b60096020528060005260406000206000915090508060000154908060010154908060020154908060030154908060040154905085565b61104961135a565b73ffffffffffffffffffffffffffffffffffffffff16611067610c23565b73ffffffffffffffffffffffffffffffffffffffff16146110bd576040517f08c379a00000000000000000000000000000000000000000000000000000000081526004016110b490611bc3565b60405180910390fd5b600073ffffffffffffffffffffffffffffffffffffffff168173ffffffffffffffffffffffffffffffffffffffff160361112c576040517f08c379a00000000000000000000000000000000000000000000000000000000081526004016111239061202a565b60405180910390fd5b611135816117af565b50565b600080600560009054906101000a900473ffffffffffffffffffffffffffffffffffffffff1673ffffffffffffffffffffffffffffffffffffffff16630902f1ac6040518163ffffffff1660e01b8152600401606060405180830381865afa1580156111a8573d6000803e3d6000fd5b505050506040513d601f19601f820116820180604052508101906111cc9190611e35565b506dffffffffffffffffffffffffffff169150506000600560009054906101000a900473ffffffffffffffffffffffffffffffffffffffff1673ffffffffffffffffffffffffffffffffffffffff166318160ddd6040518163ffffffff1660e01b8152600401602060405180830381865afa15801561124f573d6000803e3d6000fd5b505050506040513d601f19601f820116820180604052508101906112739190611e9d565b905060008185846112849190611eca565b61128e9190611f53565b905060006402540be400600760009054906101000a900473ffffffffffffffffffffffffffffffffffffffff1673ffffffffffffffffffffffffffffffffffffffff166337ef57c36040518163ffffffff1660e01b81526004016020604051808303816000875af1158015611307573d6000803e3d6000fd5b505050506040513d601f19601f8201168201806040525081019061132b9190611e9d565b6113359190611eca565b9050806002836113459190611eca565b61134f9190611f53565b945050505050919050565b600033905090565b6002600154036113a7576040517f08c379a000000000000000000000000000000000000000000000000000000000815260040161139e90612096565b60405180910390fd5b60026001819055506000600660009054906101000a900473ffffffffffffffffffffffffffffffffffffffff1673ffffffffffffffffffffffffffffffffffffffff166323b872dd8585856040518463ffffffff1660e01b8152600401611410939291906120b6565b6020604051808303816000875af115801561142f573d6000803e3d6000fd5b505050506040513d601f19601f820116820180604052508101906114539190611c38565b905080611495576040517f08c379a000000000000000000000000000000000000000000000000000000000815260040161148c90612139565b60405180910390fd5b5060018081905550505050565b6002600154036114e7576040517f08c379a00000000000000000000000000000000000000000000000000000000081526004016114de90612096565b60405180910390fd5b600260018190555060006064826114fe9190611f53565b90506000818361150e9190611f84565b90506000600560009054906101000a900473ffffffffffffffffffffffffffffffffffffffff1673ffffffffffffffffffffffffffffffffffffffff166323b872dd87600860009054906101000a900473ffffffffffffffffffffffffffffffffffffffff16866040518463ffffffff1660e01b8152600401611593939291906120b6565b6020604051808303816000875af11580156115b2573d6000803e3d6000fd5b505050506040513d601f19601f820116820180604052508101906115d69190611c38565b905080611618576040517f08c379a000000000000000000000000000000000000000000000000000000000815260040161160f906121cb565b60405180910390fd5b6000600560009054906101000a900473ffffffffffffffffffffffffffffffffffffffff1673ffffffffffffffffffffffffffffffffffffffff166323b872dd8888866040518463ffffffff1660e01b8152600401611679939291906120b6565b6020604051808303816000875af1158015611698573d6000803e3d6000fd5b505050506040513d601f19601f820116820180604052508101906116bc9190611c38565b9050806116fe576040517f08c379a00000000000000000000000000000000000000000000000000000000081526004016116f5906121cb565b60405180910390fd5b5050505060018081905550505050565b611716610623565b611755576040517f08c379a000000000000000000000000000000000000000000000000000000000815260040161174c90612237565b60405180910390fd5b60008060146101000a81548160ff0219169083151502179055507f5db9ee0a495bf2e6ff9c91a7834c1ba4fdd244a5e8aa4e537bd38aeae4b073aa61179861135a565b6040516117a59190611af8565b60405180910390a1565b60008060009054906101000a900473ffffffffffffffffffffffffffffffffffffffff169050816000806101000a81548173ffffffffffffffffffffffffffffffffffffffff021916908373ffffffffffffffffffffffffffffffffffffffff1602179055508173ffffffffffffffffffffffffffffffffffffffff168173ffffffffffffffffffffffffffffffffffffffff167f8be0079c531659141344cd1fd0a4f28419497f9722a3daafe3b4186f6b6457e060405160405180910390a35050565b61187b610623565b156118bb576040517f08c379a00000000000000000000000000000000000000000000000000000000081526004016118b2906122a3565b60405180910390fd5b6001600060146101000a81548160ff0219169083151502179055507f62e78cea01bee320cd4e420270b5ea74000d11b0c9f74754ebdbfc544b05a2586118ff61135a565b60405161190c9190611af8565b60405180910390a1565b600080fd5b600073ffffffffffffffffffffffffffffffffffffffff82169050919050565b60006119468261191b565b9050919050565b6119568161193b565b811461196157600080fd5b50565b6000813590506119738161194d565b92915050565b6000819050919050565b61198c81611979565b811461199757600080fd5b50565b6000813590506119a981611983565b92915050565b600080604083850312156119c6576119c5611916565b5b60006119d485828601611964565b92505060206119e58582860161199a565b9150509250929050565b60008115159050919050565b611a04816119ef565b82525050565b6000602082019050611a1f60008301846119fb565b92915050565b600060208284031215611a3b57611a3a611916565b5b6000611a4984828501611964565b91505092915050565b60008060408385031215611a6957611a68611916565b5b6000611a778582860161199a565b9250506020611a8885828601611964565b9150509250929050565b611a9b81611979565b82525050565b6000602082019050611ab66000830184611a92565b92915050565b600060208284031215611ad257611ad1611916565b5b6000611ae08482850161199a565b91505092915050565b611af28161193b565b82525050565b6000602082019050611b0d6000830184611ae9565b92915050565b600060a082019050611b286000830188611a92565b611b356020830187611a92565b611b426040830186611a92565b611b4f6060830185611a92565b611b5c6080830184611a92565b9695505050505050565b600082825260208201905092915050565b7f4f776e61626c653a2063616c6c6572206973206e6f7420746865206f776e6572600082015250565b6000611bad602083611b66565b9150611bb882611b77565b602082019050919050565b60006020820190508181036000830152611bdc81611ba0565b9050919050565b6000604082019050611bf86000830185611ae9565b611c056020830184611a92565b9392505050565b611c15816119ef565b8114611c2057600080fd5b50565b600081519050611c3281611c0c565b92915050565b600060208284031215611c4e57611c4d611916565b5b6000611c5c84828501611c23565b91505092915050565b7f4661696c656420746f20696e6372656173652049445320616c6c6f77616e636560008201527f2e00000000000000000000000000000000000000000000000000000000000000602082015250565b6000611cc1602183611b66565b9150611ccc82611c65565b604082019050919050565b60006020820190508181036000830152611cf081611cb4565b9050919050565b7f4e487b7100000000000000000000000000000000000000000000000000000000600052601160045260246000fd5b6000611d3182611979565b9150611d3c83611979565b9250827fffffffffffffffffffffffffffffffffffffffffffffffffffffffffffffffff03821115611d7157611d70611cf7565b5b828201905092915050565b6000606082019050611d916000830186611ae9565b611d9e6020830185611a92565b611dab6040830184611a92565b949350505050565b60006dffffffffffffffffffffffffffff82169050919050565b611dd681611db3565b8114611de157600080fd5b50565b600081519050611df381611dcd565b92915050565b600063ffffffff82169050919050565b611e1281611df9565b8114611e1d57600080fd5b50565b600081519050611e2f81611e09565b92915050565b600080600060608486031215611e4e57611e4d611916565b5b6000611e5c86828701611de4565b9350506020611e6d86828701611de4565b9250506040611e7e86828701611e20565b9150509250925092565b600081519050611e9781611983565b92915050565b600060208284031215611eb357611eb2611916565b5b6000611ec184828501611e88565b91505092915050565b6000611ed582611979565b9150611ee083611979565b9250817fffffffffffffffffffffffffffffffffffffffffffffffffffffffffffffffff0483118215151615611f1957611f18611cf7565b5b828202905092915050565b7f4e487b7100000000000000000000000000000000000000000000000000000000600052601260045260246000fd5b6000611f5e82611979565b9150611f6983611979565b925082611f7957611f78611f24565b5b828204905092915050565b6000611f8f82611979565b9150611f9a83611979565b925082821015611fad57611fac611cf7565b5b828203905092915050565b7f4f776e61626c653a206e6577206f776e657220697320746865207a65726f206160008201527f6464726573730000000000000000000000000000000000000000000000000000602082015250565b6000612014602683611b66565b915061201f82611fb8565b604082019050919050565b6000602082019050818103600083015261204381612007565b9050919050565b7f5265656e7472616e637947756172643a207265656e7472616e742063616c6c00600082015250565b6000612080601f83611b66565b915061208b8261204a565b602082019050919050565b600060208201905081810360008301526120af81612073565b9050919050565b60006060820190506120cb6000830186611ae9565b6120d86020830185611ae9565b6120e56040830184611a92565b949350505050565b7f4661696c656420746f2073656e64204944532e00000000000000000000000000600082015250565b6000612123601383611b66565b915061212e826120ed565b602082019050919050565b6000602082019050818103600083015261215281612116565b9050919050565b7f4661696c656420746f2073656e64204c5020746f6b656e2c20636865636b207960008201527f6f75722062616c616e636520616e6420616c6c6f77616e63652e000000000000602082015250565b60006121b5603a83611b66565b91506121c082612159565b604082019050919050565b600060208201905081810360008301526121e4816121a8565b9050919050565b7f5061757361626c653a206e6f7420706175736564000000000000000000000000600082015250565b6000612221601483611b66565b915061222c826121eb565b602082019050919050565b6000602082019050818103600083015261225081612214565b9050919050565b7f5061757361626c653a2070617573656400000000000000000000000000000000600082015250565b600061228d601083611b66565b915061229882612257565b602082019050919050565b600060208201905081810360008301526122bc81612280565b905091905056fea2646970667358221220468f79d2ba72f6b41e2bf584f3d9d00b2a949126882ec318e84050dd3757465564736f6c634300080d0033",
  "immutableReferences": {},
  "source": "// SPDX-License-Identifier: MIT\n\npragma solidity ^0.8.10;\n\nimport \"@openzeppelin/contracts/access/Ownable.sol\";\nimport \"@openzeppelin/contracts/security/Pausable.sol\";\nimport \"@openzeppelin/contracts/security/ReentrancyGuard.sol\";\n\ninterface ILPContract {\n    function getReserves() external view returns (uint112 _reserve0, uint112 _reserve1, uint32 _blockTimestampLast);\n    function transferFrom(address sender, address recipient, uint256 amount) external returns (bool);\n    function totalSupply() external view returns (uint256);\n}\n\ninterface IExchangeContract {\n    function idsPrice() external returns (uint);\n}\n\ninterface IERC20Token {\n    function transferFrom(address sender, address recipient, uint256 amount) external returns (bool);\n    function increaseAllowance(address spender, uint addedValue) external returns (bool);\n    function balanceOf(address account) external returns (uint256);\n}\n\ncontract Staking is Ownable, Pausable, ReentrancyGuard {\n    struct Staking {\n        uint startDate;\n        uint lastClaimDate;\n        uint LPAmount;\n        uint initialIDSAmount;\n        uint initialBUSDAmount;\n    }\n    \n    uint growthRate;\n    uint decimal;\n    uint period;\n\n    address LPAddress;\n    address IDSAddress;\n    address IExchangeContractAddress;\n    address feeRecipient;\n    \n    mapping(address => Staking) public stakings;\n    mapping(address => address) public referrals;\n    mapping(address => uint) public referralProfits;\n\n    event Stake(address wallet, uint amount);\n    event Unstake(address wallet, uint amount);\n    event Restake(address wallet, uint oldAmount, uint newAmount);\n    event ProfitWithdrawal(address wallet, uint amount);\n    \n    constructor (address lp, address ids, address exchange, address fees) {\n        /* growthRate is 0.2083333% per hour */\n        growthRate = 2083333;\n        decimal = 10 ** 9; \n        period = 60 * 60;\n\n        LPAddress = lp;\n        IDSAddress = ids;\n        IExchangeContractAddress = exchange;\n        feeRecipient = fees;\n    }\n\n\n    /* Setters */\n\n    function setFeesAddress(address wallet) external onlyOwner {\n        feeRecipient = wallet;\n    }\n\n\n    /* Internal Functions */\n\n    function transferIDS(address from, address to, uint amount) internal nonReentrant {\n        bool sent = IERC20Token(IDSAddress).transferFrom(from, to, amount);\n        require(sent, \"Failed to send IDS.\");\n    }\n\n    function transferLP(address from, address to, uint amount) internal nonReentrant {\n        uint fee = amount / 100;\n        uint payback = amount - fee;\n\n        bool feeSent = ILPContract(LPAddress).transferFrom(from, feeRecipient, fee);\n        require(feeSent, \"Failed to send LP token, check your balance and allowance.\");\n\n        bool paybackSent = ILPContract(LPAddress).transferFrom(from, to, payback);\n        require(paybackSent, \"Failed to send LP token, check your balance and allowance.\");\n    }\n\n    function LPtoIDS(uint LPTokensAmount) public returns (uint) {\n        (, uint BUSDReserve, ) = ILPContract(LPAddress).getReserves();\n\n        uint totalSupply = ILPContract(LPAddress).totalSupply();\n        uint stakedBUSD = BUSDReserve * LPTokensAmount / totalSupply;\n        uint price = IExchangeContract(IExchangeContractAddress).idsPrice() * (10 ** 10); // converting to BUSD decimals\n        \n        return stakedBUSD * 2 / price;\n    }\n\n    function LPtoBUSD(uint LPTokensAmount) public view returns (uint) {\n        (, uint BUSDReserve, ) = ILPContract(LPAddress).getReserves();\n\n        uint totalSupply = ILPContract(LPAddress).totalSupply();\n\n        return ((BUSDReserve * 2) * LPTokensAmount) / totalSupply;\n    }\n\n    /* Getters */\n\n    function calculateProfit(address wallet) public view returns (uint) {\n        Staking storage stakingData = stakings[wallet];\n\n        uint timedelta = block.timestamp - stakingData.lastClaimDate;\n        uint periodsNumber = timedelta / period;\n\n        return stakingData.initialIDSAmount * growthRate * periodsNumber / decimal;\n    }\n\n    /* Business Logic */\n\n    function stake(uint amount, address referrer) public {\n        if (referrals[msg.sender] == address(0)) {\n            referrals[msg.sender] = referrer;\n        }\n\n        transferLP(msg.sender, address(this), amount);\n        \n        Staking storage stakingData = stakings[msg.sender];\n\n        if (stakings[msg.sender].startDate != 0) {\n            withdrawProfit();\n\n            emit Restake(msg.sender, stakingData.LPAmount, stakingData.LPAmount + amount);\n        } else {\n            emit Stake(msg.sender, amount);\n        }\n\n        stakingData.startDate = block.timestamp;\n        stakingData.lastClaimDate = block.timestamp;\n        stakingData.LPAmount += amount;\n        stakingData.initialIDSAmount = LPtoIDS(stakingData.LPAmount);\n        stakingData.initialBUSDAmount = LPtoBUSD(stakingData.LPAmount);\n    }\n\n    function unstake() public {\n        withdrawProfit();\n\n        Staking storage stakingData = stakings[msg.sender];\n        uint LPAmount = stakingData.LPAmount;\n\n        delete stakings[msg.sender];\n\n        transferLP(address(this), msg.sender, LPAmount);\n\n        emit Unstake(msg.sender, LPAmount);\n    }\n\n    function withdrawProfit() public {\n        uint profit = calculateProfit(msg.sender);\n\n        Staking storage stakingData = stakings[msg.sender];\n        stakingData.lastClaimDate = block.timestamp;\n\n        transferIDS(address(this), msg.sender, profit);\n        \n        Staking storage referrerStakingData = stakings[referrals[msg.sender]];\n        if (referrerStakingData.initialBUSDAmount >= 100) {\n            referralProfits[referrals[msg.sender]] += profit * 3 / 100;\n        }\n        \n        emit ProfitWithdrawal(msg.sender, profit);\n    }\n\n    function withdrawReferralProfit() public {\n        uint profit = referralProfits[msg.sender];\n        referralProfits[msg.sender] = 0;\n\n        transferIDS(address(this), msg.sender, profit);\n\n        emit ProfitWithdrawal(msg.sender, profit);\n    }\n\n\n    /* Admin Functions */\n\n    function releaseIDS(address recipient, uint amount) external onlyOwner {\n        bool increased = IERC20Token(IDSAddress).increaseAllowance(address(this), amount);\n        require(increased, \"Failed to increase IDS allowance.\");\n\n        transferIDS(address(this), recipient, amount);\n    }\n\n    function pause() external onlyOwner {\n        _pause();\n    }\n\n    function unpause() external onlyOwner {\n        _unpause();\n    }\n}",
  "sourcePath": "/Users/vovkapultik/Blockchain/dest-sc/contracts/Staking.sol",
  "compiler": {
    "name": "solc",
    "version": "0.8.13+commit.abaa5c0e.Emscripten.clang"
  },
  "schemaVersion": "3.4.7",
  "updatedAt": "2022-05-24T18:17:23.658Z",
  "devdoc": {
    "kind": "dev",
    "methods": {
      "owner()": {
        "details": "Returns the address of the current owner."
      },
      "paused()": {
        "details": "Returns true if the contract is paused, and false otherwise."
      },
      "renounceOwnership()": {
        "details": "Leaves the contract without owner. It will not be possible to call `onlyOwner` functions anymore. Can only be called by the current owner. NOTE: Renouncing ownership will leave the contract without an owner, thereby removing any functionality that is only available to the owner."
      },
      "transferOwnership(address)": {
        "details": "Transfers ownership of the contract to a new account (`newOwner`). Can only be called by the current owner."
      }
    },
    "version": 1
  },
  "userdoc": {
    "kind": "user",
    "methods": {},
    "version": 1
  }
}